{
  "contractName": "RooExchange",
  "abi": [
    {
      "constant": false,
      "inputs": [],
      "name": "acceptOwnership",
      "outputs": [],
      "payable": false,
      "stateMutability": "nonpayable",
      "type": "function"
    },
    {
      "constant": true,
      "inputs": [],
      "name": "owner",
      "outputs": [
        {
          "name": "",
          "type": "address"
        }
      ],
      "payable": false,
      "stateMutability": "view",
      "type": "function"
    },
    {
      "constant": true,
      "inputs": [],
      "name": "newOwner",
      "outputs": [
        {
          "name": "",
          "type": "address"
        }
      ],
      "payable": false,
      "stateMutability": "view",
      "type": "function"
    },
    {
      "constant": false,
      "inputs": [
        {
          "name": "_newOwner",
          "type": "address"
        }
      ],
      "name": "transferOwnership",
      "outputs": [],
      "payable": false,
      "stateMutability": "nonpayable",
      "type": "function"
    },
    {
      "anonymous": false,
      "inputs": [
        {
          "indexed": true,
          "name": "_from",
          "type": "address"
        },
        {
          "indexed": true,
          "name": "_symbolIndex",
          "type": "uint256"
        },
        {
          "indexed": false,
          "name": "_amount",
          "type": "uint256"
        },
        {
          "indexed": false,
          "name": "_timestamp",
          "type": "uint256"
        }
      ],
      "name": "DepositForTokenReceived",
      "type": "event"
    },
    {
      "anonymous": false,
      "inputs": [
        {
          "indexed": true,
          "name": "_to",
          "type": "address"
        },
        {
          "indexed": true,
          "name": "_symbolIndex",
          "type": "uint256"
        },
        {
          "indexed": false,
          "name": "_amount",
          "type": "uint256"
        },
        {
          "indexed": false,
          "name": "_timestamp",
          "type": "uint256"
        }
      ],
      "name": "WithdrawalToken",
      "type": "event"
    },
    {
      "anonymous": false,
      "inputs": [
        {
          "indexed": true,
          "name": "_from",
          "type": "address"
        },
        {
          "indexed": false,
          "name": "_amount",
          "type": "uint256"
        },
        {
          "indexed": false,
          "name": "_timestamp",
          "type": "uint256"
        }
      ],
      "name": "DepositForEthReceived",
      "type": "event"
    },
    {
      "anonymous": false,
      "inputs": [
        {
          "indexed": true,
          "name": "_to",
          "type": "address"
        },
        {
          "indexed": false,
          "name": "_amount",
          "type": "uint256"
        },
        {
          "indexed": false,
          "name": "_timestamp",
          "type": "uint256"
        }
      ],
      "name": "WithdrawalEth",
      "type": "event"
    },
    {
      "anonymous": false,
      "inputs": [
        {
          "indexed": true,
          "name": "_symbolIndex",
          "type": "uint256"
        },
        {
          "indexed": true,
          "name": "_who",
          "type": "address"
        },
        {
          "indexed": false,
          "name": "_amountTokens",
          "type": "uint256"
        },
        {
          "indexed": false,
          "name": "_priceInWei",
          "type": "uint256"
        },
        {
          "indexed": false,
          "name": "_orderKey",
          "type": "uint256"
        }
      ],
      "name": "LimitSellOrderCreated",
      "type": "event"
    },
    {
      "anonymous": false,
      "inputs": [
        {
          "indexed": true,
          "name": "_symbolIndex",
          "type": "uint256"
        },
        {
          "indexed": false,
          "name": "_amount",
          "type": "uint256"
        },
        {
          "indexed": false,
          "name": "_priceInWei",
          "type": "uint256"
        },
        {
          "indexed": false,
          "name": "_orderKey",
          "type": "uint256"
        }
      ],
      "name": "SellOrderFulfilled",
      "type": "event"
    },
    {
      "anonymous": false,
      "inputs": [
        {
          "indexed": true,
          "name": "_symbolIndex",
          "type": "uint256"
        },
        {
          "indexed": false,
          "name": "_priceInWei",
          "type": "uint256"
        },
        {
          "indexed": false,
          "name": "_orderKey",
          "type": "uint256"
        }
      ],
      "name": "SellOrderCanceled",
      "type": "event"
    },
    {
      "anonymous": false,
      "inputs": [
        {
          "indexed": true,
          "name": "_symbolIndex",
          "type": "uint256"
        },
        {
          "indexed": true,
          "name": "_who",
          "type": "address"
        },
        {
          "indexed": false,
          "name": "_amountTokens",
          "type": "uint256"
        },
        {
          "indexed": false,
          "name": "_priceInWei",
          "type": "uint256"
        },
        {
          "indexed": false,
          "name": "_orderKey",
          "type": "uint256"
        }
      ],
      "name": "LimitBuyOrderCreated",
      "type": "event"
    },
    {
      "anonymous": false,
      "inputs": [
        {
          "indexed": true,
          "name": "_symbolIndex",
          "type": "uint256"
        },
        {
          "indexed": false,
          "name": "_amount",
          "type": "uint256"
        },
        {
          "indexed": false,
          "name": "_priceInWei",
          "type": "uint256"
        },
        {
          "indexed": false,
          "name": "_orderKey",
          "type": "uint256"
        }
      ],
      "name": "BuyOrderFulfilled",
      "type": "event"
    },
    {
      "anonymous": false,
      "inputs": [
        {
          "indexed": true,
          "name": "_symbolIndex",
          "type": "uint256"
        },
        {
          "indexed": false,
          "name": "_priceInWei",
          "type": "uint256"
        },
        {
          "indexed": false,
          "name": "_orderKey",
          "type": "uint256"
        }
      ],
      "name": "BuyOrderCanceled",
      "type": "event"
    },
    {
      "anonymous": false,
      "inputs": [
        {
          "indexed": false,
          "name": "_symbolIndex",
          "type": "uint256"
        },
        {
          "indexed": false,
          "name": "_token",
          "type": "string"
        },
        {
          "indexed": false,
          "name": "_timestamp",
          "type": "uint256"
        }
      ],
      "name": "TokenAddedToSystem",
      "type": "event"
    },
    {
      "anonymous": false,
      "inputs": [
        {
          "indexed": true,
          "name": "_from",
          "type": "address"
        },
        {
          "indexed": true,
          "name": "_to",
          "type": "address"
        }
      ],
      "name": "OwnershipTransferred",
      "type": "event"
    },
    {
      "constant": false,
      "inputs": [],
      "name": "depositEther",
      "outputs": [],
      "payable": true,
      "stateMutability": "payable",
      "type": "function"
    },
    {
      "constant": false,
      "inputs": [
        {
          "name": "amountInWei",
          "type": "uint256"
        }
      ],
      "name": "withdrawEther",
      "outputs": [],
      "payable": false,
      "stateMutability": "nonpayable",
      "type": "function"
    },
    {
      "constant": true,
      "inputs": [],
      "name": "getEthBalanceInWei",
      "outputs": [
        {
          "name": "",
          "type": "uint256"
        }
      ],
      "payable": false,
      "stateMutability": "view",
      "type": "function"
    },
    {
      "constant": false,
      "inputs": [
        {
          "name": "symbolName",
          "type": "string"
        },
        {
          "name": "erc20TokenAddress",
          "type": "address"
        }
      ],
      "name": "addToken",
      "outputs": [],
      "payable": false,
      "stateMutability": "nonpayable",
      "type": "function"
    },
    {
      "constant": true,
      "inputs": [
        {
          "name": "symbolName",
          "type": "string"
        }
      ],
      "name": "hasToken",
      "outputs": [
        {
          "name": "",
          "type": "bool"
        }
      ],
      "payable": false,
      "stateMutability": "view",
      "type": "function"
    },
    {
      "constant": false,
      "inputs": [
        {
          "name": "symbolName",
          "type": "string"
        },
        {
          "name": "amount",
          "type": "uint256"
        }
      ],
      "name": "depositToken",
      "outputs": [],
      "payable": false,
      "stateMutability": "nonpayable",
      "type": "function"
    },
    {
      "constant": false,
      "inputs": [
        {
          "name": "symbolName",
          "type": "string"
        },
        {
          "name": "amount",
          "type": "uint256"
        }
      ],
      "name": "withdrawToken",
      "outputs": [],
      "payable": false,
      "stateMutability": "nonpayable",
      "type": "function"
    },
    {
      "constant": true,
      "inputs": [
        {
          "name": "symbolName",
          "type": "string"
        }
      ],
      "name": "getBalance",
      "outputs": [
        {
          "name": "",
          "type": "uint256"
        }
      ],
      "payable": false,
      "stateMutability": "view",
      "type": "function"
    },
    {
      "constant": true,
      "inputs": [
        {
          "name": "symbolName",
          "type": "string"
        }
      ],
      "name": "getBuyOrderBook",
      "outputs": [
        {
          "name": "",
          "type": "uint256[]"
        },
        {
          "name": "",
          "type": "uint256[]"
        }
      ],
      "payable": false,
      "stateMutability": "view",
      "type": "function"
    },
    {
      "constant": true,
      "inputs": [
        {
          "name": "symbolName",
          "type": "string"
        }
      ],
      "name": "getSellOrderBook",
      "outputs": [
        {
          "name": "",
          "type": "uint256[]"
        },
        {
          "name": "",
          "type": "uint256[]"
        }
      ],
      "payable": false,
      "stateMutability": "view",
      "type": "function"
    },
    {
      "constant": false,
      "inputs": [
        {
          "name": "symbolName",
          "type": "string"
        },
        {
          "name": "priceInWei",
          "type": "uint256"
        },
        {
          "name": "amount",
          "type": "uint256"
        }
      ],
      "name": "buyToken",
      "outputs": [],
      "payable": false,
      "stateMutability": "nonpayable",
      "type": "function"
    },
    {
      "constant": false,
      "inputs": [
        {
          "name": "symbolName",
          "type": "string"
        },
        {
          "name": "priceInWei",
          "type": "uint256"
        },
        {
          "name": "amount",
          "type": "uint256"
        }
      ],
      "name": "sellToken",
      "outputs": [],
      "payable": false,
      "stateMutability": "nonpayable",
      "type": "function"
    },
    {
      "constant": false,
      "inputs": [
        {
          "name": "symbolName",
          "type": "string"
        },
        {
          "name": "isSellOrder",
          "type": "bool"
        },
        {
          "name": "priceInWei",
          "type": "uint256"
        },
        {
          "name": "offerKey",
          "type": "uint256"
        }
      ],
      "name": "cancelOrder",
      "outputs": [],
      "payable": false,
      "stateMutability": "nonpayable",
      "type": "function"
    }
  ],
  "bytecode": "0x6060604052336000806101000a81548173ffffffffffffffffffffffffffffffffffffffff021916908373ffffffffffffffffffffffffffffffffffffffff160217905550615150806100536000396000f3006060604052600436106100f1576000357c0100000000000000000000000000000000000000000000000000000000900463ffffffff16806303bc4a27146100f65780631a8eb72b146101f057806333ad57e4146102195780633a51d2461461027f5780633bed33ce146102f05780635ab8ea3314610313578063728ff0291461038257806379ba50971461047c578063851030fe146104915780638da5cb5b146105005780638ea008181461055557806398ea5fca146105ca578063b0b22c2c146105d4578063c97a413a14610650578063d1a3b025146106b6578063d4ee1d9014610730578063f2fde38b14610785575b600080fd5b341561010157600080fd5b610151600480803590602001908201803590602001908080601f016020809104026020016040519081016040528093929190818152602001838380828437820191505050505050919050506107be565b604051808060200180602001838103835285818151815260200191508051906020019060200280838360005b8381101561019857808201518184015260208101905061017d565b50505050905001838103825284818151815260200191508051906020019060200280838360005b838110156101da5780820151818401526020810190506101bf565b5050505090500194505050505060405180910390f35b34156101fb57600080fd5b610203610a6e565b6040518082815260200191505060405180910390f35b341561022457600080fd5b61027d600480803590602001908201803590602001908080601f01602080910402602001604051908101604052809392919081815260200183838082843782019150505050505091908035906020019091905050610ab5565b005b341561028a57600080fd5b6102da600480803590602001908201803590602001908080601f01602080910402602001604051908101604052809392919081815260200183838082843782019150505050505091905050610e07565b6040518082815260200191505060405180910390f35b34156102fb57600080fd5b6103116004808035906020019091905050610e74565b005b341561031e57600080fd5b610380600480803590602001908201803590602001908080601f0160208091040260200160405190810160405280939291908181526020018383808284378201915050505050509190803590602001909190803590602001909190505061103a565b005b341561038d57600080fd5b6103dd600480803590602001908201803590602001908080601f01602080910402602001604051908101604052809392919081815260200183838082843782019150505050505091905050611fb8565b604051808060200180602001838103835285818151815260200191508051906020019060200280838360005b83811015610424578082015181840152602081019050610409565b50505050905001838103825284818151815260200191508051906020019060200280838360005b8381101561046657808201518184015260208101905061044b565b5050505090500194505050505060405180910390f35b341561048757600080fd5b61048f612269565b005b341561049c57600080fd5b6104fe600480803590602001908201803590602001908080601f01602080910402602001604051908101604052809392919081815260200183838082843782019150505050505091908035906020019091908035906020019091905050612408565b005b341561050b57600080fd5b6105136134bb565b604051808273ffffffffffffffffffffffffffffffffffffffff1673ffffffffffffffffffffffffffffffffffffffff16815260200191505060405180910390f35b341561056057600080fd5b6105b0600480803590602001908201803590602001908080601f016020809104026020016040519081016040528093929190818152602001838380828437820191505050505050919050506134e0565b604051808215151515815260200191505060405180910390f35b6105d261350e565b005b34156105df57600080fd5b61064e600480803590602001908201803590602001908080601f0160208091040260200160405190810160405280939291908181526020018383808284378201915050505050509190803573ffffffffffffffffffffffffffffffffffffffff16906020019091905050613642565b005b341561065b57600080fd5b6106b4600480803590602001908201803590602001908080601f01602080910402602001604051908101604052809392919081815260200183838082843782019150505050505091908035906020019091905050613850565b005b34156106c157600080fd5b61072e600480803590602001908201803590602001908080601f016020809104026020016040519081016040528093929190818152602001838380828437820191505050505050919080351515906020019091908035906020019091908035906020019091905050613bd6565b005b341561073b57600080fd5b6107436140de565b604051808273ffffffffffffffffffffffffffffffffffffffff1673ffffffffffffffffffffffffffffffffffffffff16815260200191505060405180910390f35b341561079057600080fd5b6107bc600480803573ffffffffffffffffffffffffffffffffffffffff16906020019091905050614104565b005b6107c6615057565b6107ce615057565b60006107d8615057565b6107e0615057565b6000806000806107ef8a6141a3565b9650600260008860ff1660ff1681526020019081526020016000206005015460405180591061081b5750595b90808252806020026020018201604052509550600260008860ff1660ff168152602001908152602001600020600501546040518059106108585750595b90808252806020026020018201604052509450600260008860ff1660ff168152602001908152602001600020600401549350600092506000600260008960ff1660ff168152602001908152602001600020600301541115610a5c575b600260008860ff1660ff1681526020019081526020016000206003015484111515610a5b578386848151811015156108e857fe5b90602001906020020181815250506000915060009050600260008860ff1660ff16815260200190815260200160002060020160008581526020019081526020016000206003015490505b600260008860ff1660ff168152602001908152602001600020600201600085815260200190815260200160002060040154811115156109c157600260008860ff1660ff1681526020019081526020016000206002016000858152602001908152602001600020600201600082815260200190815260200160002060000154820191508080600101915050610932565b8185848151811015156109d057fe5b9060200190602002018181525050600260008860ff1660ff168152602001908152602001600020600201600085815260200190815260200160002060000154841415610a1b57610a5b565b600260008860ff1660ff168152602001908152602001600020600201600085815260200190815260200160002060000154935082806001019350506108b4565b5b85859850985050505050505050915091565b6000600560003373ffffffffffffffffffffffffffffffffffffffff1673ffffffffffffffffffffffffffffffffffffffff16815260200190815260200160002054905090565b600080610ac1846141a3565b9150600073ffffffffffffffffffffffffffffffffffffffff16600260008460ff1660ff16815260200190815260200160002060000160009054906101000a900473ffffffffffffffffffffffffffffffffffffffff1673ffffffffffffffffffffffffffffffffffffffff1614151515610b3b57600080fd5b600260008360ff1660ff16815260200190815260200160002060000160009054906101000a900473ffffffffffffffffffffffffffffffffffffffff169050600115158173ffffffffffffffffffffffffffffffffffffffff166323b872dd3330876000604051602001526040518463ffffffff167c0100000000000000000000000000000000000000000000000000000000028152600401808473ffffffffffffffffffffffffffffffffffffffff1673ffffffffffffffffffffffffffffffffffffffff1681526020018373ffffffffffffffffffffffffffffffffffffffff1673ffffffffffffffffffffffffffffffffffffffff1681526020018281526020019350505050602060405180830381600087803b1515610c5d57600080fd5b6102c65a03f11515610c6e57600080fd5b505050604051805190501515141515610c8657600080fd5b600460003373ffffffffffffffffffffffffffffffffffffffff1673ffffffffffffffffffffffffffffffffffffffff16815260200190815260200160002060008360ff1660ff1681526020019081526020016000205483600460003373ffffffffffffffffffffffffffffffffffffffff1673ffffffffffffffffffffffffffffffffffffffff16815260200190815260200160002060008560ff1660ff168152602001908152602001600020540110151515610d4357600080fd5b82600460003373ffffffffffffffffffffffffffffffffffffffff1673ffffffffffffffffffffffffffffffffffffffff16815260200190815260200160002060008460ff1660ff168152602001908152602001600020600082825401925050819055508160ff163373ffffffffffffffffffffffffffffffffffffffff167fc0aa5496c7b01c4b317a58e270b45f383bcd6ae57f9e5124db9c0674b77764998542604051808381526020018281526020019250505060405180910390a350505050565b600080610e13836141a3565b9050600460003373ffffffffffffffffffffffffffffffffffffffff1673ffffffffffffffffffffffffffffffffffffffff16815260200190815260200160002060008260ff1660ff16815260200190815260200160002054915050919050565b600081600560003373ffffffffffffffffffffffffffffffffffffffff1673ffffffffffffffffffffffffffffffffffffffff168152602001908152602001600020540310151515610ec557600080fd5b600560003373ffffffffffffffffffffffffffffffffffffffff1673ffffffffffffffffffffffffffffffffffffffff1681526020019081526020016000205481600560003373ffffffffffffffffffffffffffffffffffffffff1673ffffffffffffffffffffffffffffffffffffffff168152602001908152602001600020540311151515610f5457600080fd5b80600560003373ffffffffffffffffffffffffffffffffffffffff1673ffffffffffffffffffffffffffffffffffffffff168152602001908152602001600020600082825403925050819055503373ffffffffffffffffffffffffffffffffffffffff166108fc829081150290604051600060405180830381858888f193505050501515610fe157600080fd5b3373ffffffffffffffffffffffffffffffffffffffff167fac9513adf40097763b4664bee3693d0f051127c5ac55e33f68926c1612ac59958242604051808381526020018281526020019250505060405180910390a250565b600080600080600080600061104e8a6141a3565b9650600095506000600260008960ff1660ff16815260200190815260200160002060090154148061109a575088600260008960ff1660ff16815260200190815260200160002060070154115b156112e05788880295508786101515156110b357600080fd5b8886101515156110c257600080fd5b85600560003373ffffffffffffffffffffffffffffffffffffffff1673ffffffffffffffffffffffffffffffffffffffff168152602001908152602001600020541015151561111057600080fd5b600086600560003373ffffffffffffffffffffffffffffffffffffffff1673ffffffffffffffffffffffffffffffffffffffff16815260200190815260200160002054031015151561116157600080fd5b600560003373ffffffffffffffffffffffffffffffffffffffff1673ffffffffffffffffffffffffffffffffffffffff1681526020019081526020016000205486600560003373ffffffffffffffffffffffffffffffffffffffff1673ffffffffffffffffffffffffffffffffffffffff1681526020019081526020016000205403111515156111f057600080fd5b85600560003373ffffffffffffffffffffffffffffffffffffffff1673ffffffffffffffffffffffffffffffffffffffff16815260200190815260200160002060008282540392505081905550611249878a8a336141cc565b3373ffffffffffffffffffffffffffffffffffffffff168760ff167f2ef51fa215957689865f55575d7d89840bee8fce54b23ef826fea1a304acdd3f8a8c600260008d60ff1660ff16815260200190815260200160002060020160008f81526020019081526020016000206004015460405180848152602001838152602001828152602001935050505060405180910390a3611fac565b60009450600260008860ff1660ff1681526020019081526020016000206007015493508792505b8884111580156113175750600083115b15611f9657600260008860ff1660ff16815260200190815260200160002060060160008581526020019081526020016000206003015491505b600260008860ff1660ff16815260200190815260200160002060060160008581526020019081526020016000206004015482111580156113905750600083115b15611f7257600260008860ff1660ff16815260200190815260200160002060060160008581526020019081526020016000206002016000838152602001908152602001600020600001549050828111151561191c57838102945084600560003373ffffffffffffffffffffffffffffffffffffffff1673ffffffffffffffffffffffffffffffffffffffff168152602001908152602001600020541015151561143857600080fd5b600560003373ffffffffffffffffffffffffffffffffffffffff1673ffffffffffffffffffffffffffffffffffffffff1681526020019081526020016000205485600560003373ffffffffffffffffffffffffffffffffffffffff1673ffffffffffffffffffffffffffffffffffffffff1681526020019081526020016000205403111515156114c757600080fd5b84600560003373ffffffffffffffffffffffffffffffffffffffff1673ffffffffffffffffffffffffffffffffffffffff16815260200190815260200160002060008282540392505081905550600460003373ffffffffffffffffffffffffffffffffffffffff1673ffffffffffffffffffffffffffffffffffffffff16815260200190815260200160002060008860ff1660ff1681526020019081526020016000205481600460003373ffffffffffffffffffffffffffffffffffffffff1673ffffffffffffffffffffffffffffffffffffffff16815260200190815260200160002060008a60ff1660ff1681526020019081526020016000205401101515156115d157600080fd5b60056000600260008a60ff1660ff1681526020019081526020016000206006016000878152602001908152602001600020600201600085815260200190815260200160002060010160009054906101000a900473ffffffffffffffffffffffffffffffffffffffff1673ffffffffffffffffffffffffffffffffffffffff1673ffffffffffffffffffffffffffffffffffffffff168152602001908152602001600020548560056000600260008c60ff1660ff1681526020019081526020016000206006016000898152602001908152602001600020600201600087815260200190815260200160002060010160009054906101000a900473ffffffffffffffffffffffffffffffffffffffff1673ffffffffffffffffffffffffffffffffffffffff1673ffffffffffffffffffffffffffffffffffffffff16815260200190815260200160002054011015151561172857600080fd5b80600460003373ffffffffffffffffffffffffffffffffffffffff1673ffffffffffffffffffffffffffffffffffffffff16815260200190815260200160002060008960ff1660ff168152602001908152602001600020600082825401925050819055506000600260008960ff1660ff16815260200190815260200160002060060160008681526020019081526020016000206002016000848152602001908152602001600020600001819055508460056000600260008b60ff1660ff1681526020019081526020016000206006016000888152602001908152602001600020600201600086815260200190815260200160002060010160009054906101000a900473ffffffffffffffffffffffffffffffffffffffff1673ffffffffffffffffffffffffffffffffffffffff1673ffffffffffffffffffffffffffffffffffffffff16815260200190815260200160002060008282540192505081905550600260008860ff1660ff1681526020019081526020016000206006016000858152602001908152602001600020600301600081548092919060010191905055508660ff167fcbfa5edcd918ef1ec42746c71ac83c456f37330c83a22e44d6cfdca22d56471082868560405180848152602001838152602001828152602001935050505060405180910390a28083039250611d5d565b82600260008960ff1660ff168152602001908152602001600020600601600086815260200190815260200160002060020160008481526020019081526020016000206000015411151561196e57600080fd5b8383029550600560003373ffffffffffffffffffffffffffffffffffffffff1673ffffffffffffffffffffffffffffffffffffffff1681526020019081526020016000205486600560003373ffffffffffffffffffffffffffffffffffffffff1673ffffffffffffffffffffffffffffffffffffffff168152602001908152602001600020540311151515611a0257600080fd5b85600560003373ffffffffffffffffffffffffffffffffffffffff1673ffffffffffffffffffffffffffffffffffffffff1681526020019081526020016000206000828254039250508190555060056000600260008a60ff1660ff1681526020019081526020016000206006016000878152602001908152602001600020600201600085815260200190815260200160002060010160009054906101000a900473ffffffffffffffffffffffffffffffffffffffff1673ffffffffffffffffffffffffffffffffffffffff1673ffffffffffffffffffffffffffffffffffffffff168152602001908152602001600020548660056000600260008c60ff1660ff1681526020019081526020016000206006016000898152602001908152602001600020600201600087815260200190815260200160002060010160009054906101000a900473ffffffffffffffffffffffffffffffffffffffff1673ffffffffffffffffffffffffffffffffffffffff1673ffffffffffffffffffffffffffffffffffffffff168152602001908152602001600020540110151515611ba657600080fd5b82600260008960ff1660ff16815260200190815260200160002060060160008681526020019081526020016000206002016000848152602001908152602001600020600001600082825403925050819055508560056000600260008b60ff1660ff1681526020019081526020016000206006016000888152602001908152602001600020600201600086815260200190815260200160002060010160009054906101000a900473ffffffffffffffffffffffffffffffffffffffff1673ffffffffffffffffffffffffffffffffffffffff1673ffffffffffffffffffffffffffffffffffffffff1681526020019081526020016000206000828254019250508190555082600460003373ffffffffffffffffffffffffffffffffffffffff1673ffffffffffffffffffffffffffffffffffffffff16815260200190815260200160002060008960ff1660ff16815260200190815260200160002060008282540192505081905550600092508660ff167fcbfa5edcd918ef1ec42746c71ac83c456f37330c83a22e44d6cfdca22d56471084868560405180848152602001838152602001828152602001935050505060405180910390a25b600260008860ff1660ff16815260200190815260200160002060060160008581526020019081526020016000206004015482148015611de057506000600260008960ff1660ff1681526020019081526020016000206006016000868152602001908152602001600020600201600084815260200190815260200160002060000154145b15611f6557600260008860ff1660ff1681526020019081526020016000206009016000815480929190600190039190505550600260008860ff1660ff168152602001908152602001600020600601600085815260200190815260200160002060000154841480611e8057506000600260008960ff1660ff168152602001908152602001600020600201600086815260200190815260200160002060000154145b15611eac576000600260008960ff1660ff16815260200190815260200160002060070181905550611f64565b600260008860ff1660ff168152602001908152602001600020600601600085815260200190815260200160002060000154600260008960ff1660ff168152602001908152602001600020600701819055506000600260008960ff1660ff1681526020019081526020016000206006016000600260008b60ff1660ff1681526020019081526020016000206002016000888152602001908152602001600020600001548152602001908152602001600020600101819055505b5b8180600101925050611350565b600260008860ff1660ff168152602001908152602001600020600701549350611307565b6000831115611fab57611faa8a8a8561103a565b5b5b50505050505050505050565b611fc0615057565b611fc8615057565b6000611fd2615057565b611fda615057565b600080600080611fe98a6141a3565b9650600260008860ff1660ff168152602001908152602001600020600901546040518059106120155750595b90808252806020026020018201604052509550600260008860ff1660ff168152602001908152602001600020600901546040518059106120525750595b90808252806020026020018201604052509450600260008860ff1660ff168152602001908152602001600020600701549350600092506000600260008960ff1660ff168152602001908152602001600020600701541115612257575b600260008860ff1660ff1681526020019081526020016000206008015484111515612256578386848151811015156120e257fe5b90602001906020020181815250506000915060009050600260008860ff1660ff16815260200190815260200160002060060160008581526020019081526020016000206003015490505b600260008860ff1660ff168152602001908152602001600020600601600085815260200190815260200160002060040154811115156121bb57600260008860ff1660ff168152602001908152602001600020600601600085815260200190815260200160002060020160008281526020019081526020016000206000015482019150808060010191505061212c565b8185848151811015156121ca57fe5b90602001906020020181815250506000600260008960ff1660ff168152602001908152602001600020600601600086815260200190815260200160002060000154141561221657612256565b600260008860ff1660ff168152602001908152602001600020600601600085815260200190815260200160002060000154935082806001019350506120ae565b5b85859850985050505050505050915091565b600160009054906101000a900473ffffffffffffffffffffffffffffffffffffffff1673ffffffffffffffffffffffffffffffffffffffff163373ffffffffffffffffffffffffffffffffffffffff161415156122c557600080fd5b600160009054906101000a900473ffffffffffffffffffffffffffffffffffffffff1673ffffffffffffffffffffffffffffffffffffffff166000809054906101000a900473ffffffffffffffffffffffffffffffffffffffff1673ffffffffffffffffffffffffffffffffffffffff167f8be0079c531659141344cd1fd0a4f28419497f9722a3daafe3b4186f6b6457e060405160405180910390a3600160009054906101000a900473ffffffffffffffffffffffffffffffffffffffff166000806101000a81548173ffffffffffffffffffffffffffffffffffffffff021916908373ffffffffffffffffffffffffffffffffffffffff1602179055506000600160006101000a81548173ffffffffffffffffffffffffffffffffffffffff021916908373ffffffffffffffffffffffffffffffffffffffff160217905550565b600080600080600080600061241c8a6141a3565b965060009550600094506000600260008960ff1660ff16815260200190815260200160002060050154148061246c575088600260008960ff1660ff16815260200190815260200160002060030154105b156126f757888802955087861015151561248557600080fd5b88861015151561249457600080fd5b87600460003373ffffffffffffffffffffffffffffffffffffffff1673ffffffffffffffffffffffffffffffffffffffff16815260200190815260200160002060008960ff1660ff16815260200190815260200160002054101515156124f957600080fd5b600088600460003373ffffffffffffffffffffffffffffffffffffffff1673ffffffffffffffffffffffffffffffffffffffff16815260200190815260200160002060008a60ff1660ff16815260200190815260200160002054031015151561256157600080fd5b600560003373ffffffffffffffffffffffffffffffffffffffff1673ffffffffffffffffffffffffffffffffffffffff1681526020019081526020016000205486600560003373ffffffffffffffffffffffffffffffffffffffff1673ffffffffffffffffffffffffffffffffffffffff1681526020019081526020016000205401101515156125f057600080fd5b87600460003373ffffffffffffffffffffffffffffffffffffffff1673ffffffffffffffffffffffffffffffffffffffff16815260200190815260200160002060008960ff1660ff16815260200190815260200160002060008282540392505081905550612660878a8a33614814565b3373ffffffffffffffffffffffffffffffffffffffff168760ff167fc7d136f10bcb424de2ff60d5473d863ed2fdcd5d352e045d89ee9581f54f6afb8a8c600260008d60ff1660ff16815260200190815260200160002060060160008f81526020019081526020016000206004015460405180848152602001838152602001828152602001935050505060405180910390a36134af565b600260008860ff1660ff1681526020019081526020016000206003015493508792505b88841015801561272a5750600083115b1561349957600260008860ff1660ff16815260200190815260200160002060020160008581526020019081526020016000206003015491505b600260008860ff1660ff16815260200190815260200160002060020160008581526020019081526020016000206004015482111580156127a35750600083115b1561347557600260008860ff1660ff168152602001908152602001600020600201600085815260200190815260200160002060020160008381526020019081526020016000206000015490508281111515612d3657838102945080600460003373ffffffffffffffffffffffffffffffffffffffff1673ffffffffffffffffffffffffffffffffffffffff16815260200190815260200160002060008960ff1660ff168152602001908152602001600020541015151561286257600080fd5b80600460003373ffffffffffffffffffffffffffffffffffffffff1673ffffffffffffffffffffffffffffffffffffffff16815260200190815260200160002060008960ff1660ff16815260200190815260200160002060008282540392505081905550600081600460003373ffffffffffffffffffffffffffffffffffffffff1673ffffffffffffffffffffffffffffffffffffffff16815260200190815260200160002060008a60ff1660ff16815260200190815260200160002054031015151561292e57600080fd5b60046000600260008a60ff1660ff1681526020019081526020016000206002016000878152602001908152602001600020600201600085815260200190815260200160002060010160009054906101000a900473ffffffffffffffffffffffffffffffffffffffff1673ffffffffffffffffffffffffffffffffffffffff1673ffffffffffffffffffffffffffffffffffffffff16815260200190815260200160002060008860ff1660ff168152602001908152602001600020548160046000600260008c60ff1660ff1681526020019081526020016000206002016000898152602001908152602001600020600201600087815260200190815260200160002060010160009054906101000a900473ffffffffffffffffffffffffffffffffffffffff1673ffffffffffffffffffffffffffffffffffffffff1673ffffffffffffffffffffffffffffffffffffffff16815260200190815260200160002060008a60ff1660ff168152602001908152602001600020540110151515612ab357600080fd5b600560003373ffffffffffffffffffffffffffffffffffffffff1673ffffffffffffffffffffffffffffffffffffffff1681526020019081526020016000205485600560003373ffffffffffffffffffffffffffffffffffffffff1673ffffffffffffffffffffffffffffffffffffffff168152602001908152602001600020540110151515612b4257600080fd5b8060046000600260008b60ff1660ff1681526020019081526020016000206002016000888152602001908152602001600020600201600086815260200190815260200160002060010160009054906101000a900473ffffffffffffffffffffffffffffffffffffffff1673ffffffffffffffffffffffffffffffffffffffff1673ffffffffffffffffffffffffffffffffffffffff16815260200190815260200160002060008960ff1660ff168152602001908152602001600020600082825401925050819055506000600260008960ff1660ff168152602001908152602001600020600201600086815260200190815260200160002060020160008481526020019081526020016000206000018190555084600560003373ffffffffffffffffffffffffffffffffffffffff1673ffffffffffffffffffffffffffffffffffffffff16815260200190815260200160002060008282540192505081905550600260008860ff1660ff1681526020019081526020016000206002016000858152602001908152602001600020600301600081548092919060010191905055508660ff167fcbfa5edcd918ef1ec42746c71ac83c456f37330c83a22e44d6cfdca22d56471082868560405180848152602001838152602001828152602001935050505060405180910390a28083039250613245565b6000838203111515612d4757600080fd5b838302955082600460003373ffffffffffffffffffffffffffffffffffffffff1673ffffffffffffffffffffffffffffffffffffffff16815260200190815260200160002060008960ff1660ff1681526020019081526020016000205410151515612db157600080fd5b82600460003373ffffffffffffffffffffffffffffffffffffffff1673ffffffffffffffffffffffffffffffffffffffff16815260200190815260200160002060008960ff1660ff1681526020019081526020016000206000828254039250508190555082600460003373ffffffffffffffffffffffffffffffffffffffff1673ffffffffffffffffffffffffffffffffffffffff16815260200190815260200160002060008960ff1660ff1681526020019081526020016000205410151515612e7a57600080fd5b600560003373ffffffffffffffffffffffffffffffffffffffff1673ffffffffffffffffffffffffffffffffffffffff1681526020019081526020016000205486600560003373ffffffffffffffffffffffffffffffffffffffff1673ffffffffffffffffffffffffffffffffffffffff168152602001908152602001600020540110151515612f0957600080fd5b60046000600260008a60ff1660ff1681526020019081526020016000206002016000878152602001908152602001600020600201600085815260200190815260200160002060010160009054906101000a900473ffffffffffffffffffffffffffffffffffffffff1673ffffffffffffffffffffffffffffffffffffffff1673ffffffffffffffffffffffffffffffffffffffff16815260200190815260200160002060008860ff1660ff168152602001908152602001600020548360046000600260008c60ff1660ff1681526020019081526020016000206002016000898152602001908152602001600020600201600087815260200190815260200160002060010160009054906101000a900473ffffffffffffffffffffffffffffffffffffffff1673ffffffffffffffffffffffffffffffffffffffff1673ffffffffffffffffffffffffffffffffffffffff16815260200190815260200160002060008a60ff1660ff16815260200190815260200160002054011015151561308e57600080fd5b82600260008960ff1660ff168152602001908152602001600020600201600086815260200190815260200160002060020160008481526020019081526020016000206000016000828254039250508190555085600560003373ffffffffffffffffffffffffffffffffffffffff1673ffffffffffffffffffffffffffffffffffffffff168152602001908152602001600020600082825401925050819055508260046000600260008b60ff1660ff1681526020019081526020016000206002016000888152602001908152602001600020600201600086815260200190815260200160002060010160009054906101000a900473ffffffffffffffffffffffffffffffffffffffff1673ffffffffffffffffffffffffffffffffffffffff1673ffffffffffffffffffffffffffffffffffffffff16815260200190815260200160002060008960ff1660ff168152602001908152602001600020600082825401925050819055508660ff167fcbfa5edcd918ef1ec42746c71ac83c456f37330c83a22e44d6cfdca22d56471084868560405180848152602001838152602001828152602001935050505060405180910390a2600092505b600260008860ff1660ff168152602001908152602001600020600201600085815260200190815260200160002060040154821480156132c857506000600260008960ff1660ff1681526020019081526020016000206002016000868152602001908152602001600020600201600084815260200190815260200160002060000154145b1561346857600260008860ff1660ff1681526020019081526020016000206005016000815480929190600190039190505550600260008860ff1660ff16815260200190815260200160002060020160008581526020019081526020016000206001015484148061336857506000600260008960ff1660ff168152602001908152602001600020600201600086815260200190815260200160002060010154145b15613394576000600260008960ff1660ff16815260200190815260200160002060030181905550613467565b600260008860ff1660ff168152602001908152602001600020600201600085815260200190815260200160002060010154600260008960ff1660ff16815260200190815260200160002060030181905550600260008860ff1660ff16815260200190815260200160002060030154600260008960ff1660ff1681526020019081526020016000206002016000600260008b60ff1660ff1681526020019081526020016000206002016000888152602001908152602001600020600101548152602001908152602001600020600001819055505b5b8180600101925050612763565b600260008860ff1660ff16815260200190815260200160002060030154935061271a565b60008311156134ae576134ad8a8a85612408565b5b5b50505050505050505050565b6000809054906101000a900473ffffffffffffffffffffffffffffffffffffffff1681565b6000806134ec83614e5e565b905060008160ff1614156135035760009150613508565b600191505b50919050565b600560003373ffffffffffffffffffffffffffffffffffffffff1673ffffffffffffffffffffffffffffffffffffffff1681526020019081526020016000205434600560003373ffffffffffffffffffffffffffffffffffffffff1673ffffffffffffffffffffffffffffffffffffffff16815260200190815260200160002054011015151561359d57600080fd5b34600560003373ffffffffffffffffffffffffffffffffffffffff1673ffffffffffffffffffffffffffffffffffffffff168152602001908152602001600020600082825401925050819055503373ffffffffffffffffffffffffffffffffffffffff167f42dbebeb8f6fb795e3007753aef2d4b1a292dd123f6de06a41050186741506373442604051808381526020018281526020019250505060405180910390a2565b6000809054906101000a900473ffffffffffffffffffffffffffffffffffffffff1673ffffffffffffffffffffffffffffffffffffffff163373ffffffffffffffffffffffffffffffffffffffff1614151561369d57600080fd5b6136a6826134e0565b1515156136b257600080fd5b6003600081819054906101000a900460ff168092919060010191906101000a81548160ff021916908360ff160217905550508160026000600360009054906101000a900460ff1660ff1660ff168152602001908152602001600020600101908051906020019061372392919061506b565b508060026000600360009054906101000a900460ff1660ff1660ff16815260200190815260200160002060000160006101000a81548173ffffffffffffffffffffffffffffffffffffffff021916908373ffffffffffffffffffffffffffffffffffffffff1602179055507f6c71eb76d5d82031f490d3e44dc01d298444e569078199b14510435d81b59ff7600360009054906101000a900460ff168342604051808460ff16815260200180602001838152602001828103825284818151815260200191508051906020019080838360005b838110156138105780820151818401526020810190506137f5565b50505050905090810190601f16801561383d5780820380516001836020036101000a031916815260200191505b5094505050505060405180910390a15050565b60008061385c846141a3565b9150600073ffffffffffffffffffffffffffffffffffffffff16600260008460ff1660ff16815260200190815260200160002060000160009054906101000a900473ffffffffffffffffffffffffffffffffffffffff1673ffffffffffffffffffffffffffffffffffffffff16141515156138d657600080fd5b600260008360ff1660ff16815260200190815260200160002060000160009054906101000a900473ffffffffffffffffffffffffffffffffffffffff169050600083600460003373ffffffffffffffffffffffffffffffffffffffff1673ffffffffffffffffffffffffffffffffffffffff16815260200190815260200160002060008560ff1660ff16815260200190815260200160002054031015151561397d57600080fd5b600460003373ffffffffffffffffffffffffffffffffffffffff1673ffffffffffffffffffffffffffffffffffffffff16815260200190815260200160002060008360ff1660ff1681526020019081526020016000205483600460003373ffffffffffffffffffffffffffffffffffffffff1673ffffffffffffffffffffffffffffffffffffffff16815260200190815260200160002060008560ff1660ff168152602001908152602001600020540311151515613a3a57600080fd5b82600460003373ffffffffffffffffffffffffffffffffffffffff1673ffffffffffffffffffffffffffffffffffffffff16815260200190815260200160002060008460ff1660ff16815260200190815260200160002060008282540392505081905550600115158173ffffffffffffffffffffffffffffffffffffffff1663a9059cbb33866000604051602001526040518363ffffffff167c0100000000000000000000000000000000000000000000000000000000028152600401808373ffffffffffffffffffffffffffffffffffffffff1673ffffffffffffffffffffffffffffffffffffffff16815260200182815260200192505050602060405180830381600087803b1515613b4d57600080fd5b6102c65a03f11515613b5e57600080fd5b505050604051805190501515141515613b7657600080fd5b8160ff163373ffffffffffffffffffffffffffffffffffffffff167faed5c5198ccd7615c0128c72fcfc060e97b14315cb791a46bf42b5b6f36c38b98542604051808381526020018281526020019250505060405180910390a350505050565b6000806000613be4876141a3565b92508515613e84573373ffffffffffffffffffffffffffffffffffffffff16600260008560ff1660ff1681526020019081526020016000206006016000878152602001908152602001600020600201600086815260200190815260200160002060010160009054906101000a900473ffffffffffffffffffffffffffffffffffffffff1673ffffffffffffffffffffffffffffffffffffffff16141515613c8a57600080fd5b600260008460ff1660ff16815260200190815260200160002060060160008681526020019081526020016000206002016000858152602001908152602001600020600001549150600460003373ffffffffffffffffffffffffffffffffffffffff1673ffffffffffffffffffffffffffffffffffffffff16815260200190815260200160002060008460ff1660ff1681526020019081526020016000205482600460003373ffffffffffffffffffffffffffffffffffffffff1673ffffffffffffffffffffffffffffffffffffffff16815260200190815260200160002060008660ff1660ff168152602001908152602001600020540110151515613d8e57600080fd5b81600460003373ffffffffffffffffffffffffffffffffffffffff1673ffffffffffffffffffffffffffffffffffffffff16815260200190815260200160002060008560ff1660ff168152602001908152602001600020600082825401925050819055506000600260008560ff1660ff16815260200190815260200160002060060160008781526020019081526020016000206002016000868152602001908152602001600020600001819055508260ff167fffac5f4941e92bc6814610a825eeff0ae9bb4a17d47c0e2353c6889b2b550fb88686604051808381526020018281526020019250505060405180910390a26140d5565b3373ffffffffffffffffffffffffffffffffffffffff16600260008560ff1660ff1681526020019081526020016000206002016000878152602001908152602001600020600201600086815260200190815260200160002060010160009054906101000a900473ffffffffffffffffffffffffffffffffffffffff1673ffffffffffffffffffffffffffffffffffffffff16141515613f2257600080fd5b84600260008560ff1660ff1681526020019081526020016000206002016000878152602001908152602001600020600201600086815260200190815260200160002060000154029050600560003373ffffffffffffffffffffffffffffffffffffffff1673ffffffffffffffffffffffffffffffffffffffff1681526020019081526020016000205481600560003373ffffffffffffffffffffffffffffffffffffffff1673ffffffffffffffffffffffffffffffffffffffff168152602001908152602001600020540110151515613ffa57600080fd5b80600560003373ffffffffffffffffffffffffffffffffffffffff1673ffffffffffffffffffffffffffffffffffffffff168152602001908152602001600020600082825401925050819055506000600260008560ff1660ff16815260200190815260200160002060020160008781526020019081526020016000206002016000868152602001908152602001600020600001819055508260ff167f5f2fdca15d8ab2ad3f590066add3054471b3603ca44a66f12e124e9c97ec19558686604051808381526020018281526020019250505060405180910390a25b50505050505050565b600160009054906101000a900473ffffffffffffffffffffffffffffffffffffffff1681565b6000809054906101000a900473ffffffffffffffffffffffffffffffffffffffff1673ffffffffffffffffffffffffffffffffffffffff163373ffffffffffffffffffffffffffffffffffffffff1614151561415f57600080fd5b80600160006101000a81548173ffffffffffffffffffffffffffffffffffffffff021916908373ffffffffffffffffffffffffffffffffffffffff16021790555050565b6000806141af83614e5e565b905060008160ff161115156141c357600080fd5b80915050919050565b600080600080600260008960ff1660ff16815260200190815260200160002060020160008881526020019081526020016000206004016000815480929190600101919050555060408051908101604052808781526020018673ffffffffffffffffffffffffffffffffffffffff16815250600260008a60ff1660ff16815260200190815260200160002060020160008981526020019081526020016000206002016000600260008c60ff1660ff16815260200190815260200160002060020160008b81526020019081526020016000206004015481526020019081526020016000206000820151816000015560208201518160010160006101000a81548173ffffffffffffffffffffffffffffffffffffffff021916908373ffffffffffffffffffffffffffffffffffffffff1602179055509050506001600260008a60ff1660ff168152602001908152602001600020600201600089815260200190815260200160002060040154141561480a576001600260008a60ff1660ff168152602001908152602001600020600201600089815260200190815260200160002060030181905550600260008960ff1660ff16815260200190815260200160002060050160008154809291906001019190505550600260008960ff1660ff168152602001908152602001600020600301549350600260008960ff1660ff16815260200190815260200160002060040154925060008314806143e957508683115b1561454f5760008414156144885786600260008a60ff1660ff1681526020019081526020016000206003018190555086600260008a60ff1660ff1681526020019081526020016000206002016000898152602001908152602001600020600001819055506000600260008a60ff1660ff168152602001908152602001600020600201600089815260200190815260200160002060010181905550614529565b86600260008a60ff1660ff16815260200190815260200160002060020160008581526020019081526020016000206001018190555082600260008a60ff1660ff1681526020019081526020016000206002016000898152602001908152602001600020600001819055506000600260008a60ff1660ff1681526020019081526020016000206002016000898152602001908152602001600020600101819055505b86600260008a60ff1660ff16815260200190815260200160002060040181905550614809565b8684101561461c5786600260008a60ff1660ff16815260200190815260200160002060020160008681526020019081526020016000206000018190555086600260008a60ff1660ff16815260200190815260200160002060020160008981526020019081526020016000206000018190555083600260008a60ff1660ff16815260200190815260200160002060020160008981526020019081526020016000206001018190555086600260008a60ff1660ff16815260200190815260200160002060030181905550614808565b600260008960ff1660ff168152602001908152602001600020600301549150600090505b60008211801561464e575080155b15614807578682108015614691575086600260008a60ff1660ff168152602001908152602001600020600201600084815260200190815260200160002060000154115b156147cf5781600260008a60ff1660ff168152602001908152602001600020600201600089815260200190815260200160002060010181905550600260008960ff1660ff168152602001908152602001600020600201600083815260200190815260200160002060000154600260008a60ff1660ff16815260200190815260200160002060020160008981526020019081526020016000206000018190555086600260008a60ff1660ff1681526020019081526020016000206002016000600260008c60ff1660ff16815260200190815260200160002060020160008681526020019081526020016000206000015481526020019081526020016000206001018190555086600260008a60ff1660ff168152602001908152602001600020600201600084815260200190815260200160002060000181905550600190505b600260008960ff1660ff1681526020019081526020016000206002016000838152602001908152602001600020600101549150614640565b5b5b5b5050505050505050565b600080600080600260008960ff1660ff16815260200190815260200160002060060160008881526020019081526020016000206004016000815480929190600101919050555060408051908101604052808781526020018673ffffffffffffffffffffffffffffffffffffffff16815250600260008a60ff1660ff16815260200190815260200160002060060160008981526020019081526020016000206002016000600260008c60ff1660ff16815260200190815260200160002060060160008b81526020019081526020016000206004015481526020019081526020016000206000820151816000015560208201518160010160006101000a81548173ffffffffffffffffffffffffffffffffffffffff021916908373ffffffffffffffffffffffffffffffffffffffff1602179055509050506001600260008a60ff1660ff1681526020019081526020016000206006016000898152602001908152602001600020600401541415614e54576001600260008a60ff1660ff168152602001908152602001600020600601600089815260200190815260200160002060030181905550600260008960ff1660ff16815260200190815260200160002060090160008154809291906001019190505550600260008960ff1660ff168152602001908152602001600020600701549350600260008960ff1660ff1681526020019081526020016000206008015492506000831480614a3157508683105b15614b98576000841415614ad15786600260008a60ff1660ff168152602001908152602001600020600701819055506000600260008a60ff1660ff1681526020019081526020016000206006016000898152602001908152602001600020600001819055506000600260008a60ff1660ff168152602001908152602001600020600601600089815260200190815260200160002060010181905550614b72565b86600260008a60ff1660ff16815260200190815260200160002060060160008581526020019081526020016000206000018190555082600260008a60ff1660ff1681526020019081526020016000206006016000898152602001908152602001600020600101819055506000600260008a60ff1660ff1681526020019081526020016000206006016000898152602001908152602001600020600001819055505b86600260008a60ff1660ff16815260200190815260200160002060080181905550614e53565b86841115614c665786600260008a60ff1660ff16815260200190815260200160002060060160008681526020019081526020016000206001018190555083600260008a60ff1660ff1681526020019081526020016000206006016000898152602001908152602001600020600001819055506000600260008a60ff1660ff16815260200190815260200160002060060160008981526020019081526020016000206001018190555086600260008a60ff1660ff16815260200190815260200160002060070181905550614e52565b600260008960ff1660ff168152602001908152602001600020600701549150600090505b600082118015614c98575080155b15614e51578682108015614cdb575086600260008a60ff1660ff168152602001908152602001600020600601600084815260200190815260200160002060000154115b15614e195781600260008a60ff1660ff168152602001908152602001600020600601600089815260200190815260200160002060010181905550600260008960ff1660ff168152602001908152602001600020600601600083815260200190815260200160002060000154600260008a60ff1660ff16815260200190815260200160002060060160008981526020019081526020016000206000018190555086600260008a60ff1660ff1681526020019081526020016000206006016000600260008c60ff1660ff16815260200190815260200160002060060160008681526020019081526020016000206000015481526020019081526020016000206001018190555086600260008a60ff1660ff168152602001908152602001600020600601600084815260200190815260200160002060000181905550600190505b600260008960ff1660ff1681526020019081526020016000206006016000838152602001908152602001600020600001549150614c8a565b5b5b5b5050505050505050565b600080600190505b600360009054906101000a900460ff1660ff168160ff16111515614ec357614ea9600260008360ff1660ff16815260200190815260200160002060010184614ece565b15614eb657809150614ec8565b8080600101915050614e66565b600091505b50919050565b600080614ed96150eb565b6000859250849150815183805460018160011615610100020316600290049050141515614f09576000935061504e565b600090505b82805460018160011615610100020316600290049050811015615049578181815181101515614f3957fe5b9060200101517f010000000000000000000000000000000000000000000000000000000000000090047f0100000000000000000000000000000000000000000000000000000000000000027effffffffffffffffffffffffffffffffffffffffffffffffffffffffffffff191683828154600181600116156101000203166002900481101515614fc557fe5b815460011615614fe45790600052602060002090602091828204019190065b9054901a7f0100000000000000000000000000000000000000000000000000000000000000027effffffffffffffffffffffffffffffffffffffffffffffffffffffffffffff191614151561503c576000935061504e565b8080600101915050614f0e565b600193505b50505092915050565b602060405190810160405280600081525090565b828054600181600116156101000203166002900490600052602060002090601f016020900481019282601f106150ac57805160ff19168380011785556150da565b828001600101855582156150da579182015b828111156150d95782518255916020019190600101906150be565b5b5090506150e791906150ff565b5090565b602060405190810160405280600081525090565b61512191905b8082111561511d576000816000905550600101615105565b5090565b905600a165627a7a723058201c6efbce642e40ddc7a251315f14f3b82cff86fda0ef2fd1926d4f5d161ce9730029",
  "source": "pragma solidity ^0.4.18;\n\n\nimport \"./Owned.sol\";\nimport \"./RooToken.sol\";\n\n\ncontract RooExchange is Owned {\n    ///////////////////////\n    // GENERAL STRUCTURE //\n    ///////////////////////\n    struct Offer {\n        \n        uint amount;\n        address who;\n    }\n\n    struct OrderBook {\n        \n        uint higherPrice;\n        uint lowerPrice;\n        \n        mapping (uint => Offer) offers;\n        \n        uint offers_key;\n        uint offers_length;\n    }\n\n    struct Token {\n        \n        address tokenContract;\n\n        string symbolName;\n        \n        \n        mapping (uint => OrderBook) buyBook;\n        \n        uint curBuyPrice;\n        uint lowestBuyPrice;\n        uint amountBuyPrices;\n\n\n        mapping (uint => OrderBook) sellBook;\n        uint curSellPrice;\n        uint highestSellPrice;\n        uint amountSellPrices;\n\n    }\n\n\n    //we support a max of 255 tokens...\n    mapping (uint8 => Token) tokens;\n    uint8 symbolNameIndex;\n\n\n    //////////////\n    // BALANCES //\n    //////////////\n    mapping (address => mapping (uint8 => uint)) tokenBalanceForAddress;\n\n    mapping (address => uint) balanceEthForAddress;\n\n    ////////////\n    // EVENTS //\n    ////////////\n\n    //EVENTS for Deposit/withdrawal\n    event DepositForTokenReceived(address indexed _from, uint indexed _symbolIndex, uint _amount, uint _timestamp);\n\n    event WithdrawalToken(address indexed _to, uint indexed _symbolIndex, uint _amount, uint _timestamp);\n\n    event DepositForEthReceived(address indexed _from, uint _amount, uint _timestamp);\n\n    event WithdrawalEth(address indexed _to, uint _amount, uint _timestamp);\n\n    //events for orders\n    event LimitSellOrderCreated(uint indexed _symbolIndex, address indexed _who, uint _amountTokens, uint _priceInWei, uint _orderKey);\n\n    event SellOrderFulfilled(uint indexed _symbolIndex, uint _amount, uint _priceInWei, uint _orderKey);\n\n    event SellOrderCanceled(uint indexed _symbolIndex, uint _priceInWei, uint _orderKey);\n\n    event LimitBuyOrderCreated(uint indexed _symbolIndex, address indexed _who, uint _amountTokens, uint _priceInWei, uint _orderKey);\n\n    event BuyOrderFulfilled(uint indexed _symbolIndex, uint _amount, uint _priceInWei, uint _orderKey);\n\n    event BuyOrderCanceled(uint indexed _symbolIndex, uint _priceInWei, uint _orderKey);\n\n    //events for management\n    event TokenAddedToSystem(uint _symbolIndex, string _token, uint _timestamp);\n\n\n\n\n    //////////////////////////////////\n    // DEPOSIT AND WITHDRAWAL ETHER //\n    //////////////////////////////////\n    function depositEther() public payable {\n        require(balanceEthForAddress[msg.sender] + msg.value >= balanceEthForAddress[msg.sender]);\n        balanceEthForAddress[msg.sender] += msg.value;\n        DepositForEthReceived(msg.sender, msg.value, now);\n    }\n\n    function withdrawEther(uint amountInWei) public {\n        require(balanceEthForAddress[msg.sender] - amountInWei >= 0);   \n        require(balanceEthForAddress[msg.sender] - amountInWei <= balanceEthForAddress[msg.sender]);     \n        balanceEthForAddress[msg.sender] -= amountInWei;\n        msg.sender.transfer(amountInWei);\n        WithdrawalEth(msg.sender, amountInWei, now);\n    }\n\n    function getEthBalanceInWei() public view returns (uint){\n        return balanceEthForAddress[msg.sender];\n    }\n\n\n    //////////////////////\n    // TOKEN MANAGEMENT //\n    //////////////////////\n\n    function addToken(string symbolName, address erc20TokenAddress) public onlyOwner {\n        require(!hasToken(symbolName));\n        symbolNameIndex++;\n        tokens[symbolNameIndex].symbolName = symbolName;\n        tokens[symbolNameIndex].tokenContract = erc20TokenAddress;\n        TokenAddedToSystem(symbolNameIndex, symbolName, now);\n    }\n\n    function hasToken(string symbolName) public view returns (bool) {\n        uint8 index = getSymbolIndex(symbolName);\n        if (index == 0) {\n            return false;\n        }\n        return true;\n    }\n\n\n    function getSymbolIndex(string symbolName) internal view returns (uint8) {\n        for (uint8 i = 1; i <= symbolNameIndex; i++) {\n            if (stringsEqual(tokens[i].symbolName, symbolName)) {\n                return i;\n            }\n        }\n        return 0;\n    }\n\n    function getSymbolIndexOrThrow(string symbolName) internal view returns (uint8) {\n        uint8 index = getSymbolIndex(symbolName);\n        require(index > 0);\n        return index;\n    }\n\n\n\n\n    ////////////////////////////////\n    // STRING COMPARISON FUNCTION //\n    ////////////////////////////////\n    function stringsEqual(string storage _a, string memory _b) internal view returns (bool) {\n        bytes storage a = bytes(_a);\n        bytes memory b = bytes(_b);\n        if (a.length != b.length)\n            return false;\n        // @todo unroll this loop\n        for (uint i = 0; i < a.length; i ++)\n            if (a[i] != b[i])\n                return false;\n        return true;\n    }\n\n\n    //////////////////////////////////\n    // DEPOSIT AND WITHDRAWAL TOKEN //\n    //////////////////////////////////\n    function depositToken(string symbolName, uint amount) public {\n        uint8 tokenIndex = getSymbolIndexOrThrow(symbolName);\n        require(tokens[tokenIndex].tokenContract != address(0));\n\n        ERC20Interface token = ERC20Interface(tokens[tokenIndex].tokenContract);\n\n        require(token.transferFrom(msg.sender, address(this), amount)==true);\n        require(tokenBalanceForAddress[msg.sender][tokenIndex] + amount >= tokenBalanceForAddress[msg.sender][tokenIndex]);   \n\n        tokenBalanceForAddress[msg.sender][tokenIndex] += amount; \n\n        DepositForTokenReceived(msg.sender, tokenIndex, amount, now);\n    }\n\n    function withdrawToken(string symbolName, uint amount) public {\n        uint8 tokenIndex = getSymbolIndexOrThrow(symbolName);\n        require(tokens[tokenIndex].tokenContract != address(0));\n\n        ERC20Interface token = ERC20Interface(tokens[tokenIndex].tokenContract);\n\n        require(tokenBalanceForAddress[msg.sender][tokenIndex] - amount >= 0);     \n        require(tokenBalanceForAddress[msg.sender][tokenIndex] - amount <= tokenBalanceForAddress[msg.sender][tokenIndex]);   \n\n        tokenBalanceForAddress[msg.sender][tokenIndex] -= amount; \n        require(token.transfer(msg.sender, amount) == true);\n\n        WithdrawalToken(msg.sender, tokenIndex, amount, now);\n    }\n\n    function getBalance(string symbolName) public view returns (uint) {\n        uint8 tokenIndex = getSymbolIndexOrThrow(symbolName);\n\n        return tokenBalanceForAddress[msg.sender][tokenIndex];\n    }\n\n\n    /////////////////////////////\n    // ORDER BOOK - BID ORDERS //\n    /////////////////////////////\n    function getBuyOrderBook(string symbolName) public view returns (uint[], uint[]) {\n        uint8 tokenNameIndex = getSymbolIndexOrThrow(symbolName);\n        uint[] memory arrPricesBuy = new uint[](tokens[tokenNameIndex].amountBuyPrices);\n        uint[] memory arrVolumesBuy = new uint[](tokens[tokenNameIndex].amountBuyPrices);\n\n        uint whilePrice = tokens[tokenNameIndex].lowestBuyPrice;\n        uint counter = 0;\n        if (tokens[tokenNameIndex].curBuyPrice > 0) {\n            while (whilePrice <= tokens[tokenNameIndex].curBuyPrice) {\n                arrPricesBuy[counter] = whilePrice;\n                uint volumeAtPrice = 0;\n                uint offers_key = 0;\n\n                offers_key = tokens[tokenNameIndex].buyBook[whilePrice].offers_key;\n                while (offers_key <= tokens[tokenNameIndex].buyBook[whilePrice].offers_length) {\n                    volumeAtPrice += tokens[tokenNameIndex].buyBook[whilePrice].offers[offers_key].amount;\n                    offers_key++;\n                }\n\n                arrVolumesBuy[counter] = volumeAtPrice;\n\n                //next whilePrice\n                if (whilePrice == tokens[tokenNameIndex].buyBook[whilePrice].higherPrice) {\n                    break;\n                }\n                else {\n                    whilePrice = tokens[tokenNameIndex].buyBook[whilePrice].higherPrice;\n                }\n                counter++;\n\n            }\n        }\n\n        return (arrPricesBuy, arrVolumesBuy);\n    }\n\n\n    /////////////////////////////\n    // ORDER BOOK - ASK ORDERS //\n    /////////////////////////////\n    function getSellOrderBook(string symbolName) public view returns (uint[], uint[]) {\n        uint8 tokenNameIndex = getSymbolIndexOrThrow(symbolName);\n        uint[] memory arrPricesSell = new uint[](tokens[tokenNameIndex].amountSellPrices);\n        uint[] memory arrVolumesSell = new uint[](tokens[tokenNameIndex].amountSellPrices);\n        uint sellWhilePrice = tokens[tokenNameIndex].curSellPrice;\n        uint sellCounter = 0;\n        if (tokens[tokenNameIndex].curSellPrice > 0) {\n            while (sellWhilePrice <= tokens[tokenNameIndex].highestSellPrice) {\n                arrPricesSell[sellCounter] = sellWhilePrice;\n                uint sellVolumeAtPrice = 0;\n                uint sell_offers_key = 0;\n\n                sell_offers_key = tokens[tokenNameIndex].sellBook[sellWhilePrice].offers_key;\n                while (sell_offers_key <= tokens[tokenNameIndex].sellBook[sellWhilePrice].offers_length) {\n                    sellVolumeAtPrice += tokens[tokenNameIndex].sellBook[sellWhilePrice].offers[sell_offers_key].amount;\n                    sell_offers_key++;\n                }\n\n                arrVolumesSell[sellCounter] = sellVolumeAtPrice;\n\n                //next whilePrice\n                if (tokens[tokenNameIndex].sellBook[sellWhilePrice].higherPrice == 0) {\n                    break;\n                }\n                else {\n                    sellWhilePrice = tokens[tokenNameIndex].sellBook[sellWhilePrice].higherPrice;\n                }\n                sellCounter++;\n\n            }\n        }\n\n        //sell part\n        return (arrPricesSell, arrVolumesSell);\n    }\n\n\n    ////////////////////////////\n    // NEW ORDER - BID ORDER //\n    ///////////////////////////\n    function buyToken(string symbolName, uint priceInWei, uint amount) public {\n        uint8 tokenNameIndex = getSymbolIndexOrThrow(symbolName);\n        uint total_amount_ether_necessary = 0;\n\n        if (tokens[tokenNameIndex].amountSellPrices == 0 || tokens[tokenNameIndex].curSellPrice > priceInWei) {\n            //if we have enough ether, we can buy that:\n            total_amount_ether_necessary = amount * priceInWei;\n\n            //overflow check\n            require(total_amount_ether_necessary >= amount);\n            require(total_amount_ether_necessary >= priceInWei);\n            require(balanceEthForAddress[msg.sender] >= total_amount_ether_necessary);\n            require(balanceEthForAddress[msg.sender] - total_amount_ether_necessary >= 0);\n            require(balanceEthForAddress[msg.sender] - total_amount_ether_necessary <= balanceEthForAddress[msg.sender]);\n\n            //first deduct the amount of ether from our balance\n            balanceEthForAddress[msg.sender] -= total_amount_ether_necessary;\n\n            //limit order: we don't have enough offers to fulfill the amount\n\n            //add the order to the orderBook\n            addBuyOffer(tokenNameIndex, priceInWei, amount, msg.sender);\n            //and emit the event.\n            LimitBuyOrderCreated(tokenNameIndex, msg.sender, amount, priceInWei, tokens[tokenNameIndex].buyBook[priceInWei].offers_length);\n        }\n        else {\n            //market order: current sell price is smaller or equal to buy price!\n\n            //1st: find the \"cheapest sell price\" that is lower than the buy amount  [buy: 60@5000] [sell: 50@4500] [sell: 5@5000]\n            //2: buy up the volume for 4500\n            //3: buy up the volume for 5000\n            //if still something remaining -> buyToken\n\n            //2: buy up the volume\n            //2.1 add ether to seller, add symbolName to buyer until offers_key <= offers_length\n\n            uint total_amount_ether_available = 0;\n            uint whilePrice = tokens[tokenNameIndex].curSellPrice;\n            uint amountNecessary = amount;\n            uint offers_key;\n            while (whilePrice <= priceInWei && amountNecessary > 0) {//we start with the smallest sell price.\n                offers_key = tokens[tokenNameIndex].sellBook[whilePrice].offers_key;\n                while (offers_key <= tokens[tokenNameIndex].sellBook[whilePrice].offers_length && amountNecessary > 0) {//and the first order (FIFO)\n                    uint volumeAtPriceFromAddress = tokens[tokenNameIndex].sellBook[whilePrice].offers[offers_key].amount;\n\n                    //Two choices from here:\n                    //1) one person offers not enough volume to fulfill the market order - we use it up completely and move on to the next person who offers the symbolName\n                    //2) else: we make use of parts of what a person is offering - lower his amount, fulfill out order.\n                    if (volumeAtPriceFromAddress <= amountNecessary) {\n                        total_amount_ether_available = volumeAtPriceFromAddress * whilePrice;\n\n                        require(balanceEthForAddress[msg.sender] >= total_amount_ether_available);\n                        require(balanceEthForAddress[msg.sender] - total_amount_ether_available <= balanceEthForAddress[msg.sender]);\n                        //first deduct the amount of ether from our balance\n                        balanceEthForAddress[msg.sender] -= total_amount_ether_available;\n\n                        require(tokenBalanceForAddress[msg.sender][tokenNameIndex] + volumeAtPriceFromAddress >= tokenBalanceForAddress[msg.sender][tokenNameIndex]);\n                        require(balanceEthForAddress[tokens[tokenNameIndex].sellBook[whilePrice].offers[offers_key].who] + total_amount_ether_available >= balanceEthForAddress[tokens[tokenNameIndex].sellBook[whilePrice].offers[offers_key].who]);\n                        //overflow check\n                        //this guy offers less or equal the volume that we ask for, so we use it up completely.\n                        tokenBalanceForAddress[msg.sender][tokenNameIndex] += volumeAtPriceFromAddress;\n                        tokens[tokenNameIndex].sellBook[whilePrice].offers[offers_key].amount = 0;\n                        balanceEthForAddress[tokens[tokenNameIndex].sellBook[whilePrice].offers[offers_key].who] += total_amount_ether_available;\n                        tokens[tokenNameIndex].sellBook[whilePrice].offers_key++;\n\n                        SellOrderFulfilled(tokenNameIndex, volumeAtPriceFromAddress, whilePrice, offers_key);\n\n                        amountNecessary -= volumeAtPriceFromAddress;\n                    }\n                    else {\n                        require(tokens[tokenNameIndex].sellBook[whilePrice].offers[offers_key].amount > amountNecessary);//sanity\n\n                        total_amount_ether_necessary = amountNecessary * whilePrice;\n                        require(balanceEthForAddress[msg.sender] - total_amount_ether_necessary <= balanceEthForAddress[msg.sender]);\n\n                        //first deduct the amount of ether from our balance\n                        balanceEthForAddress[msg.sender] -= total_amount_ether_necessary;\n\n                        require(balanceEthForAddress[tokens[tokenNameIndex].sellBook[whilePrice].offers[offers_key].who] + total_amount_ether_necessary >= balanceEthForAddress[tokens[tokenNameIndex].sellBook[whilePrice].offers[offers_key].who]);\n                        //overflow check\n                        //this guy offers more than we ask for. We reduce his stack, add the tokens to us and the ether to him.\n                        tokens[tokenNameIndex].sellBook[whilePrice].offers[offers_key].amount -= amountNecessary;\n                        balanceEthForAddress[tokens[tokenNameIndex].sellBook[whilePrice].offers[offers_key].who] += total_amount_ether_necessary;\n                        tokenBalanceForAddress[msg.sender][tokenNameIndex] += amountNecessary;\n\n                        amountNecessary = 0;\n                        //we have fulfilled our order\n                        SellOrderFulfilled(tokenNameIndex, amountNecessary, whilePrice, offers_key);\n                    }\n\n                    //if it was the last offer for that price, we have to set the curBuyPrice now lower. Additionally we have one offer less...\n                    if (\n                    offers_key == tokens[tokenNameIndex].sellBook[whilePrice].offers_length &&\n                    tokens[tokenNameIndex].sellBook[whilePrice].offers[offers_key].amount == 0\n                    ) {\n\n                        tokens[tokenNameIndex].amountSellPrices--;\n                        //we have one price offer less here...\n                        //next whilePrice\n                        if (whilePrice == tokens[tokenNameIndex].sellBook[whilePrice].higherPrice || tokens[tokenNameIndex].buyBook[whilePrice].higherPrice == 0) {\n                            tokens[tokenNameIndex].curSellPrice = 0;\n                            //we have reached the last price\n                        }\n                        else {\n                            tokens[tokenNameIndex].curSellPrice = tokens[tokenNameIndex].sellBook[whilePrice].higherPrice;\n                            tokens[tokenNameIndex].sellBook[tokens[tokenNameIndex].buyBook[whilePrice].higherPrice].lowerPrice = 0;\n                        }\n                    }\n                    offers_key++;\n                }\n\n                //we set the curSellPrice again, since when the volume is used up for a lowest price the curSellPrice is set there...\n                whilePrice = tokens[tokenNameIndex].curSellPrice;\n            }\n\n            if (amountNecessary > 0) {\n                buyToken(symbolName, priceInWei, amountNecessary);\n                //add a limit order!\n            }\n        }\n    }\n\n    function addBuyOffer(uint8 tokenIndex, uint priceInWei, uint amount, address who) internal {\n        tokens[tokenIndex].buyBook[priceInWei].offers_length++;\n        tokens[tokenIndex].buyBook[priceInWei].offers[tokens[tokenIndex].buyBook[priceInWei].offers_length] = Offer(amount, who);\n\n\n        if (tokens[tokenIndex].buyBook[priceInWei].offers_length == 1) {\n            tokens[tokenIndex].buyBook[priceInWei].offers_key = 1;\n            //we have a new buy order - increase the counter, so we can set the getOrderBook array later\n            tokens[tokenIndex].amountBuyPrices++;\n\n\n            //lowerPrice and higherPrice have to be set\n            uint curBuyPrice = tokens[tokenIndex].curBuyPrice;\n\n            uint lowestBuyPrice = tokens[tokenIndex].lowestBuyPrice;\n            if (lowestBuyPrice == 0 || lowestBuyPrice > priceInWei) {\n                if (curBuyPrice == 0) {\n                    //there is no buy order yet, we insert the first one...\n                    tokens[tokenIndex].curBuyPrice = priceInWei;\n                    tokens[tokenIndex].buyBook[priceInWei].higherPrice = priceInWei;\n                    tokens[tokenIndex].buyBook[priceInWei].lowerPrice = 0;\n                } else {\n                    //or the lowest one\n                    tokens[tokenIndex].buyBook[lowestBuyPrice].lowerPrice = priceInWei;\n                    tokens[tokenIndex].buyBook[priceInWei].higherPrice = lowestBuyPrice;\n                    tokens[tokenIndex].buyBook[priceInWei].lowerPrice = 0;\n                }\n                tokens[tokenIndex].lowestBuyPrice = priceInWei;\n            }else if (curBuyPrice < priceInWei) {\n                //the offer to buy is the highest one, we don't need to find the right spot\n                tokens[tokenIndex].buyBook[curBuyPrice].higherPrice = priceInWei;\n                tokens[tokenIndex].buyBook[priceInWei].higherPrice = priceInWei;\n                tokens[tokenIndex].buyBook[priceInWei].lowerPrice = curBuyPrice;\n                tokens[tokenIndex].curBuyPrice = priceInWei;\n\n            } else {\n                //we are somewhere in the middle, we need to find the right spot first...\n\n                uint buyPrice = tokens[tokenIndex].curBuyPrice;\n                bool weFoundIt = false;\n                while (buyPrice > 0 && !weFoundIt) {\n                    if (\n                    buyPrice < priceInWei &&\n                    tokens[tokenIndex].buyBook[buyPrice].higherPrice > priceInWei\n                    ) {\n                        //set the new order-book entry higher/lowerPrice first right\n                        tokens[tokenIndex].buyBook[priceInWei].lowerPrice = buyPrice;\n                        tokens[tokenIndex].buyBook[priceInWei].higherPrice = tokens[tokenIndex].buyBook[buyPrice].higherPrice;\n\n                        //set the higherPrice'd order-book entries lowerPrice to the current Price\n                        tokens[tokenIndex].buyBook[tokens[tokenIndex].buyBook[buyPrice].higherPrice].lowerPrice = priceInWei;\n                        //set the lowerPrice'd order-book entries higherPrice to the current Price\n                        tokens[tokenIndex].buyBook[buyPrice].higherPrice = priceInWei;\n\n                        //set we found it.\n                        weFoundIt = true;\n                    }\n                    buyPrice = tokens[tokenIndex].buyBook[buyPrice].lowerPrice;\n                }\n            }\n        }\n    }\n\n\n\n    ////////////////////////////\n    // NEW ORDER - ASK ORDER //\n    ///////////////////////////\n    function sellToken(string symbolName, uint priceInWei, uint amount) public {\n        uint8 tokenNameIndex = getSymbolIndexOrThrow(symbolName);\n        uint total_amount_ether_necessary = 0;\n        uint total_amount_ether_available = 0;\n\n\n        if (tokens[tokenNameIndex].amountBuyPrices == 0 || tokens[tokenNameIndex].curBuyPrice < priceInWei) {\n\n            //if we have enough ether, we can buy that:\n            total_amount_ether_necessary = amount * priceInWei;\n\n            //overflow check\n            require(total_amount_ether_necessary >= amount);\n            require(total_amount_ether_necessary >= priceInWei);\n            require(tokenBalanceForAddress[msg.sender][tokenNameIndex] >= amount);\n            require(tokenBalanceForAddress[msg.sender][tokenNameIndex] - amount >= 0);\n            require(balanceEthForAddress[msg.sender] + total_amount_ether_necessary >= balanceEthForAddress[msg.sender]);\n\n            //actually subtract the amount of tokens to change it then\n            tokenBalanceForAddress[msg.sender][tokenNameIndex] -= amount;\n\n            //limit order: we don't have enough offers to fulfill the amount\n\n            //add the order to the orderBook\n            addSellOffer(tokenNameIndex, priceInWei, amount, msg.sender);\n            //and emit the event.\n            LimitSellOrderCreated(tokenNameIndex, msg.sender, amount, priceInWei, tokens[tokenNameIndex].sellBook[priceInWei].offers_length);\n\n        }\n        else {\n            //market order: current buy price is bigger or equal to sell price!\n\n            //1st: find the \"highest buy price\" that is higher than the sell amount  [buy: 60@5000] [buy: 50@4500] [sell: 500@4000]\n            //2: sell up the volume for 5000\n            //3: sell up the volume for 4500\n            //if still something remaining -> sellToken limit order\n\n            //2: sell up the volume\n            //2.1 add ether to seller, add symbolName to buyer until offers_key <= offers_length\n\n\n            uint whilePrice = tokens[tokenNameIndex].curBuyPrice;\n            uint amountNecessary = amount;\n            uint offers_key;\n            while (whilePrice >= priceInWei && amountNecessary > 0) {//we start with the highest buy price.\n                offers_key = tokens[tokenNameIndex].buyBook[whilePrice].offers_key;\n                while (offers_key <= tokens[tokenNameIndex].buyBook[whilePrice].offers_length && amountNecessary > 0) {//and the first order (FIFO)\n                    uint volumeAtPriceFromAddress = tokens[tokenNameIndex].buyBook[whilePrice].offers[offers_key].amount;\n\n\n                    //Two choices from here:\n                    //1) one person offers not enough volume to fulfill the market order - we use it up completely and move on to the next person who offers the symbolName\n                    //2) else: we make use of parts of what a person is offering - lower his amount, fulfill out order.\n                    if (volumeAtPriceFromAddress <= amountNecessary) {\n                        total_amount_ether_available = volumeAtPriceFromAddress * whilePrice;\n\n\n                        //overflow check\n                        require(tokenBalanceForAddress[msg.sender][tokenNameIndex] >= volumeAtPriceFromAddress);\n                        //actually subtract the amount of tokens to change it then\n                        tokenBalanceForAddress[msg.sender][tokenNameIndex] -= volumeAtPriceFromAddress;\n\n                        //overflow check\n                        require(tokenBalanceForAddress[msg.sender][tokenNameIndex] - volumeAtPriceFromAddress >= 0);\n                        require(tokenBalanceForAddress[tokens[tokenNameIndex].buyBook[whilePrice].offers[offers_key].who][tokenNameIndex] + volumeAtPriceFromAddress >= tokenBalanceForAddress[tokens[tokenNameIndex].buyBook[whilePrice].offers[offers_key].who][tokenNameIndex]);\n                        require(balanceEthForAddress[msg.sender] + total_amount_ether_available >= balanceEthForAddress[msg.sender]);\n\n                        //this guy offers less or equal the volume that we ask for, so we use it up completely.\n                        tokenBalanceForAddress[tokens[tokenNameIndex].buyBook[whilePrice].offers[offers_key].who][tokenNameIndex] += volumeAtPriceFromAddress;\n                        tokens[tokenNameIndex].buyBook[whilePrice].offers[offers_key].amount = 0;\n                        balanceEthForAddress[msg.sender] += total_amount_ether_available;\n                        tokens[tokenNameIndex].buyBook[whilePrice].offers_key++;\n                        SellOrderFulfilled(tokenNameIndex, volumeAtPriceFromAddress, whilePrice, offers_key);\n\n\n                        amountNecessary -= volumeAtPriceFromAddress;\n                    }\n                    else {\n                        require(volumeAtPriceFromAddress - amountNecessary > 0);\n                        //just for sanity\n                        total_amount_ether_necessary = amountNecessary * whilePrice;\n                        //we take the rest of the outstanding amount\n\n                        //overflow check\n                        require(tokenBalanceForAddress[msg.sender][tokenNameIndex] >= amountNecessary);\n                        //actually subtract the amount of tokens to change it then\n                        tokenBalanceForAddress[msg.sender][tokenNameIndex] -= amountNecessary;\n\n                        //overflow check\n                        require(tokenBalanceForAddress[msg.sender][tokenNameIndex] >= amountNecessary);\n                        require(balanceEthForAddress[msg.sender] + total_amount_ether_necessary >= balanceEthForAddress[msg.sender]);\n                        require(tokenBalanceForAddress[tokens[tokenNameIndex].buyBook[whilePrice].offers[offers_key].who][tokenNameIndex] + amountNecessary >= tokenBalanceForAddress[tokens[tokenNameIndex].buyBook[whilePrice].offers[offers_key].who][tokenNameIndex]);\n\n                        //this guy offers more than we ask for. We reduce his stack, add the eth to us and the symbolName to him.\n                        tokens[tokenNameIndex].buyBook[whilePrice].offers[offers_key].amount -= amountNecessary;\n                        balanceEthForAddress[msg.sender] += total_amount_ether_necessary;\n                        tokenBalanceForAddress[tokens[tokenNameIndex].buyBook[whilePrice].offers[offers_key].who][tokenNameIndex] += amountNecessary;\n\n                        SellOrderFulfilled(tokenNameIndex, amountNecessary, whilePrice, offers_key);\n\n                        amountNecessary = 0;\n                        //we have fulfilled our order\n                    }\n\n                    //if it was the last offer for that price, we have to set the curBuyPrice now lower. Additionally we have one offer less...\n                    if (\n                    offers_key == tokens[tokenNameIndex].buyBook[whilePrice].offers_length &&\n                    tokens[tokenNameIndex].buyBook[whilePrice].offers[offers_key].amount == 0\n                    ) {\n\n                        tokens[tokenNameIndex].amountBuyPrices--;\n                        //we have one price offer less here...\n                        //next whilePrice\n                        if (whilePrice == tokens[tokenNameIndex].buyBook[whilePrice].lowerPrice || tokens[tokenNameIndex].buyBook[whilePrice].lowerPrice == 0) {\n                            tokens[tokenNameIndex].curBuyPrice = 0;\n                            //we have reached the last price\n                        }\n                        else {\n                            tokens[tokenNameIndex].curBuyPrice = tokens[tokenNameIndex].buyBook[whilePrice].lowerPrice;\n                            tokens[tokenNameIndex].buyBook[tokens[tokenNameIndex].buyBook[whilePrice].lowerPrice].higherPrice = tokens[tokenNameIndex].curBuyPrice;\n                        }\n                    }\n                    offers_key++;\n                }\n\n                //we set the curSellPrice again, since when the volume is used up for a lowest price the curSellPrice is set there...\n                whilePrice = tokens[tokenNameIndex].curBuyPrice;\n            }\n\n            if (amountNecessary > 0) {\n                sellToken(symbolName, priceInWei, amountNecessary);\n                //add a limit order, we couldn't fulfill all the orders!\n            }\n\n        }\n    }\n\n    function addSellOffer(uint8 tokenIndex, uint priceInWei, uint amount, address who) internal {\n        tokens[tokenIndex].sellBook[priceInWei].offers_length++;\n        tokens[tokenIndex].sellBook[priceInWei].offers[tokens[tokenIndex].sellBook[priceInWei].offers_length] = Offer(amount, who);\n\n\n        if (tokens[tokenIndex].sellBook[priceInWei].offers_length == 1) {\n            tokens[tokenIndex].sellBook[priceInWei].offers_key = 1;\n            //we have a new sell order - increase the counter, so we can set the getOrderBook array later\n            tokens[tokenIndex].amountSellPrices++;\n\n            //lowerPrice and higherPrice have to be set\n            uint curSellPrice = tokens[tokenIndex].curSellPrice;\n\n            uint highestSellPrice = tokens[tokenIndex].highestSellPrice;\n            if (highestSellPrice == 0 || highestSellPrice < priceInWei) {\n                if (curSellPrice == 0) {\n                    //there is no sell order yet, we insert the first one...\n                    tokens[tokenIndex].curSellPrice = priceInWei;\n                    tokens[tokenIndex].sellBook[priceInWei].higherPrice = 0;\n                    tokens[tokenIndex].sellBook[priceInWei].lowerPrice = 0;\n                } else {\n\n                    //this is the highest sell order\n                    tokens[tokenIndex].sellBook[highestSellPrice].higherPrice = priceInWei;\n                    tokens[tokenIndex].sellBook[priceInWei].lowerPrice = highestSellPrice;\n                    tokens[tokenIndex].sellBook[priceInWei].higherPrice = 0;\n                }\n\n                tokens[tokenIndex].highestSellPrice = priceInWei;\n\n            }\n            else if (curSellPrice > priceInWei) {\n                //the offer to sell is the lowest one, we don't need to find the right spot\n                tokens[tokenIndex].sellBook[curSellPrice].lowerPrice = priceInWei;\n                tokens[tokenIndex].sellBook[priceInWei].higherPrice = curSellPrice;\n                tokens[tokenIndex].sellBook[priceInWei].lowerPrice = 0;\n                tokens[tokenIndex].curSellPrice = priceInWei;\n\n            }else {\n                //we are somewhere in the middle, we need to find the right spot first...\n\n                uint sellPrice = tokens[tokenIndex].curSellPrice;\n                bool weFoundIt = false;\n                while (sellPrice > 0 && !weFoundIt) {\n                    if (\n                    sellPrice < priceInWei &&\n                    tokens[tokenIndex].sellBook[sellPrice].higherPrice > priceInWei\n                    ) {\n                        //set the new order-book entry higher/lowerPrice first right\n                        tokens[tokenIndex].sellBook[priceInWei].lowerPrice = sellPrice;\n                        tokens[tokenIndex].sellBook[priceInWei].higherPrice = tokens[tokenIndex].sellBook[sellPrice].higherPrice;\n\n                        //set the higherPrice'd order-book entries lowerPrice to the current Price\n                        tokens[tokenIndex].sellBook[tokens[tokenIndex].sellBook[sellPrice].higherPrice].lowerPrice = priceInWei;\n                        //set the lowerPrice'd order-book entries higherPrice to the current Price\n                        tokens[tokenIndex].sellBook[sellPrice].higherPrice = priceInWei;\n\n                        //set we found it.\n                        weFoundIt = true;\n                    }\n                    sellPrice = tokens[tokenIndex].sellBook[sellPrice].higherPrice;\n                }\n            }\n        }\n    }\n\n\n    //////////////////////////////\n    // CANCEL LIMIT ORDER LOGIC //\n    //////////////////////////////\n    function cancelOrder(string symbolName, bool isSellOrder, uint priceInWei, uint offerKey) public {\n        uint8 tokenIndex = getSymbolIndexOrThrow(symbolName);\n        if (isSellOrder) {\n            require(tokens[tokenIndex].sellBook[priceInWei].offers[offerKey].who == msg.sender);\n\n            uint tokensAmount = tokens[tokenIndex].sellBook[priceInWei].offers[offerKey].amount;\n            require(tokenBalanceForAddress[msg.sender][tokenIndex] + tokensAmount >= tokenBalanceForAddress[msg.sender][tokenIndex]);\n\n\n            tokenBalanceForAddress[msg.sender][tokenIndex] += tokensAmount;\n            tokens[tokenIndex].sellBook[priceInWei].offers[offerKey].amount = 0;\n            SellOrderCanceled(tokenIndex, priceInWei, offerKey);\n\n        } else {\n            require(tokens[tokenIndex].buyBook[priceInWei].offers[offerKey].who == msg.sender);\n            uint etherToRefund = tokens[tokenIndex].buyBook[priceInWei].offers[offerKey].amount * priceInWei;\n            require(balanceEthForAddress[msg.sender] + etherToRefund >= balanceEthForAddress[msg.sender]);\n\n            balanceEthForAddress[msg.sender] += etherToRefund;\n            tokens[tokenIndex].buyBook[priceInWei].offers[offerKey].amount = 0;\n            BuyOrderCanceled(tokenIndex, priceInWei, offerKey);\n        }\n    }\n\n}",
  "sourcePath": "/Users/ip/Projects/RooExchange/contracts/RooExchange.sol",
  "compiler": {
    "name": "solc",
    "version": "0.4.19+commit.c4cbbb05.Emscripten.clang"
  },
  "schemaVersion": "1.0.1",
  "updatedAt": "2018-02-17T20:47:54.685Z"
}